{
  "_format": "hh-sol-artifact-1",
  "contractName": "LaunchPoolTracker",
  "sourceName": "contracts/new_LaunchPoolTracker.sol",
  "abi": [
    {
      "inputs": [
        {
          "internalType": "address[]",
          "name": "allowedAddresses_",
          "type": "address[]"
        },
        {
          "internalType": "contract StakeVault",
          "name": "stakeVault_",
          "type": "address"
        }
      ],
      "stateMutability": "nonpayable",
      "type": "constructor"
    },
    {
      "anonymous": false,
      "inputs": [
        {
          "indexed": true,
          "internalType": "address",
          "name": "previousOwner",
          "type": "address"
        },
        {
          "indexed": true,
          "internalType": "address",
          "name": "newOwner",
          "type": "address"
        }
      ],
      "name": "OwnershipTransferred",
      "type": "event"
    },
    {
      "inputs": [
        {
          "internalType": "string",
          "name": "_poolName",
          "type": "string"
        },
        {
          "internalType": "uint256",
          "name": "poolValidDuration_",
          "type": "uint256"
        },
        {
          "internalType": "uint256",
          "name": "offerValidDuration_",
          "type": "uint256"
        },
        {
          "internalType": "uint256",
          "name": "minOfferAmount_",
          "type": "uint256"
        },
        {
          "internalType": "uint256",
          "name": "maxOfferAmount_",
          "type": "uint256"
        }
      ],
      "name": "addPool",
      "outputs": [],
      "stateMutability": "nonpayable",
      "type": "function"
    },
    {
      "inputs": [
        {
          "internalType": "uint256",
          "name": "poolId",
          "type": "uint256"
        },
        {
          "internalType": "uint256",
          "name": "stakeId",
          "type": "uint256"
        }
      ],
      "name": "addStake",
      "outputs": [],
      "stateMutability": "nonpayable",
      "type": "function"
    },
    {
      "inputs": [
        {
          "internalType": "uint256",
          "name": "poolId",
          "type": "uint256"
        }
      ],
      "name": "canClaimOffer",
      "outputs": [
        {
          "internalType": "bool",
          "name": "",
          "type": "bool"
        }
      ],
      "stateMutability": "view",
      "type": "function"
    },
    {
      "inputs": [
        {
          "internalType": "uint256",
          "name": "poolId",
          "type": "uint256"
        }
      ],
      "name": "cancelOffer",
      "outputs": [],
      "stateMutability": "nonpayable",
      "type": "function"
    },
    {
      "inputs": [
        {
          "internalType": "uint256",
          "name": "poolId",
          "type": "uint256"
        }
      ],
      "name": "closePool",
      "outputs": [],
      "stateMutability": "nonpayable",
      "type": "function"
    },
    {
      "inputs": [],
      "name": "closeTracker",
      "outputs": [],
      "stateMutability": "nonpayable",
      "type": "function"
    },
    {
      "inputs": [
        {
          "internalType": "uint256",
          "name": "poolId",
          "type": "uint256"
        }
      ],
      "name": "endOffer",
      "outputs": [],
      "stateMutability": "nonpayable",
      "type": "function"
    },
    {
      "inputs": [],
      "name": "getInvestmentValues",
      "outputs": [],
      "stateMutability": "nonpayable",
      "type": "function"
    },
    {
      "inputs": [],
      "name": "getPoolIds",
      "outputs": [
        {
          "internalType": "uint256[]",
          "name": "",
          "type": "uint256[]"
        }
      ],
      "stateMutability": "view",
      "type": "function"
    },
    {
      "inputs": [
        {
          "internalType": "uint256",
          "name": "poolId",
          "type": "uint256"
        }
      ],
      "name": "getStakes",
      "outputs": [
        {
          "internalType": "uint256[]",
          "name": "",
          "type": "uint256[]"
        }
      ],
      "stateMutability": "view",
      "type": "function"
    },
    {
      "inputs": [
        {
          "internalType": "uint256",
          "name": "poolId",
          "type": "uint256"
        },
        {
          "internalType": "string",
          "name": "url",
          "type": "string"
        },
        {
          "internalType": "uint256",
          "name": "startTime",
          "type": "uint256"
        },
        {
          "internalType": "uint256",
          "name": "duration",
          "type": "uint256"
        }
      ],
      "name": "newOffer",
      "outputs": [],
      "stateMutability": "nonpayable",
      "type": "function"
    },
    {
      "inputs": [],
      "name": "owner",
      "outputs": [
        {
          "internalType": "address",
          "name": "",
          "type": "address"
        }
      ],
      "stateMutability": "view",
      "type": "function"
    },
    {
      "inputs": [
        {
          "internalType": "uint256",
          "name": "",
          "type": "uint256"
        }
      ],
      "name": "poolIds",
      "outputs": [
        {
          "internalType": "uint256",
          "name": "",
          "type": "uint256"
        }
      ],
      "stateMutability": "view",
      "type": "function"
    },
    {
      "inputs": [
        {
          "internalType": "uint256",
          "name": "",
          "type": "uint256"
        }
      ],
      "name": "poolsById",
      "outputs": [
        {
          "internalType": "string",
          "name": "name",
          "type": "string"
        },
        {
          "internalType": "address",
          "name": "sponsor",
          "type": "address"
        },
        {
          "internalType": "enum LaunchPoolTracker.PoolStatus",
          "name": "status",
          "type": "uint8"
        },
        {
          "components": [
            {
              "internalType": "uint256",
              "name": "startTime",
              "type": "uint256"
            },
            {
              "internalType": "uint256",
              "name": "duration",
              "type": "uint256"
            }
          ],
          "internalType": "struct LaunchPoolTracker.ExpiryData",
          "name": "poolExpiry",
          "type": "tuple"
        },
        {
          "components": [
            {
              "internalType": "uint256",
              "name": "startTime",
              "type": "uint256"
            },
            {
              "internalType": "uint256",
              "name": "duration",
              "type": "uint256"
            }
          ],
          "internalType": "struct LaunchPoolTracker.ExpiryData",
          "name": "offerExpiry",
          "type": "tuple"
        },
        {
          "components": [
            {
              "components": [
                {
                  "internalType": "uint256",
                  "name": "minimum",
                  "type": "uint256"
                },
                {
                  "internalType": "uint256",
                  "name": "maximum",
                  "type": "uint256"
                }
              ],
              "internalType": "struct LaunchPoolTracker.OfferBounds",
              "name": "bounds",
              "type": "tuple"
            },
            {
              "internalType": "string",
              "name": "url",
              "type": "string"
            }
          ],
          "internalType": "struct LaunchPoolTracker.Offer",
          "name": "offer",
          "type": "tuple"
        },
        {
          "internalType": "uint256",
          "name": "totalCommitAmount",
          "type": "uint256"
        }
      ],
      "stateMutability": "view",
      "type": "function"
    },
    {
      "inputs": [],
      "name": "renounceOwnership",
      "outputs": [],
      "stateMutability": "nonpayable",
      "type": "function"
    },
    {
      "inputs": [
        {
          "internalType": "contract StakeVault",
          "name": "stakeVault_",
          "type": "address"
        }
      ],
      "name": "setStakeVault",
      "outputs": [],
      "stateMutability": "nonpayable",
      "type": "function"
    },
    {
      "inputs": [],
      "name": "setValues",
      "outputs": [],
      "stateMutability": "nonpayable",
      "type": "function"
    },
    {
      "inputs": [
        {
          "internalType": "address",
          "name": "newOwner",
          "type": "address"
        }
      ],
      "name": "transferOwnership",
      "outputs": [],
      "stateMutability": "nonpayable",
      "type": "function"
    }
  ],
  "bytecode": "0x60806040523480156200001157600080fd5b50604051620028aa380380620028aa83398181016040528101906200003791906200039d565b600062000049620002c560201b60201c565b9050806000806101000a81548173ffffffffffffffffffffffffffffffffffffffff021916908373ffffffffffffffffffffffffffffffffffffffff1602179055508073ffffffffffffffffffffffffffffffffffffffff16600073ffffffffffffffffffffffffffffffffffffffff167f8be0079c531659141344cd1fd0a4f28419497f9722a3daafe3b4186f6b6457e060405160405180910390a3506001825110156200012f576040517f08c379a000000000000000000000000000000000000000000000000000000000815260040162000126906200044c565b60405180910390fd5b60005b8251811015620001ea5760018060008584815181106200017b577f4e487b7100000000000000000000000000000000000000000000000000000000600052603260045260246000fd5b602002602001015173ffffffffffffffffffffffffffffffffffffffff1673ffffffffffffffffffffffffffffffffffffffff16815260200190815260200160002060006101000a81548160ff0219169083151502179055508080620001e19062000587565b91505062000132565b5080600660006101000a81548173ffffffffffffffffffffffffffffffffffffffff021916908373ffffffffffffffffffffffffffffffffffffffff160217905550600660009054906101000a900473ffffffffffffffffffffffffffffffffffffffff1673ffffffffffffffffffffffffffffffffffffffff166359c3f3e0306040518263ffffffff1660e01b81526004016200028991906200042f565b600060405180830381600087803b158015620002a457600080fd5b505af1158015620002b9573d6000803e3d6000fd5b505050505050620006a1565b600033905090565b6000620002e4620002de8462000497565b6200046e565b905080838252602082019050828560208602820111156200030457600080fd5b60005b858110156200033857816200031d888262000342565b84526020840193506020830192505060018101905062000307565b5050509392505050565b60008151905062000353816200066d565b92915050565b600082601f8301126200036b57600080fd5b81516200037d848260208601620002cd565b91505092915050565b600081519050620003978162000687565b92915050565b60008060408385031215620003b157600080fd5b600083015167ffffffffffffffff811115620003cc57600080fd5b620003da8582860162000359565b9250506020620003ed8582860162000386565b9150509250929050565b620004028162000529565b82525050565b600062000417601883620004c6565b9150620004248262000644565b602082019050919050565b6000602082019050620004466000830184620003f7565b92915050565b60006020820190508181036000830152620004678162000408565b9050919050565b60006200047a6200048d565b905062000488828262000551565b919050565b6000604051905090565b600067ffffffffffffffff821115620004b557620004b462000604565b5b602082029050602081019050919050565b600082825260208201905092915050565b6000620004e482620004ff565b9050919050565b6000620004f882620004d7565b9050919050565b600073ffffffffffffffffffffffffffffffffffffffff82169050919050565b6000819050919050565b600062000536826200053d565b9050919050565b60006200054a82620004ff565b9050919050565b6200055c8262000633565b810181811067ffffffffffffffff821117156200057e576200057d62000604565b5b80604052505050565b600062000594826200051f565b91507fffffffffffffffffffffffffffffffffffffffffffffffffffffffffffffffff821415620005ca57620005c9620005d5565b5b600182019050919050565b7f4e487b7100000000000000000000000000000000000000000000000000000000600052601160045260246000fd5b7f4e487b7100000000000000000000000000000000000000000000000000000000600052604160045260246000fd5b6000601f19601f8301169050919050565b7f5468657265206d757374206265206174206c6561737420310000000000000000600082015250565b6200067881620004d7565b81146200068457600080fd5b50565b6200069281620004eb565b81146200069e57600080fd5b50565b6121f980620006b16000396000f3fe608060405234801561001057600080fd5b50600436106101165760003560e01c80638da5cb5b116100a2578063e97d75b411610071578063e97d75b4146102ab578063ef706adf146102b5578063f2fde38b146102d1578063f36ba4d8146102ed578063fd2b52021461030957610116565b80638da5cb5b14610237578063a55fe6e414610255578063adf0237914610271578063b4f2bb6d1461028d57610116565b806369883b4e116100e957806369883b4e146101b3578063715018a6146101e35780637423d47f146101ed5780637f81c364146101f7578063800509d51461022d57610116565b8063058340581461011b5780630d7ba7fa1461013757806337de615f14610167578063472343b914610183575b600080fd5b61013560048036038101906101309190611823565b610325565b005b610151600480360381019061014c9190611823565b610552565b60405161015e9190611ba9565b60405180910390f35b610181600480360381019061017c9190611823565b610595565b005b61019d60048036038101906101989190611823565b6106d6565b6040516101aa9190611b87565b60405180910390f35b6101cd60048036038101906101c89190611823565b61074a565b6040516101da9190611cde565b60405180910390f35b6101eb61076e565b005b6101f56108a8565b005b610211600480360381019061020c9190611823565b6108aa565b6040516102249796959493929190611bdf565b60405180910390f35b610235610aa1565b005b61023f610b1f565b60405161024c9190611b6c565b60405180910390f35b61026f600480360381019061026a9190611794565b610b48565b005b61028b6004803603810190610286919061184c565b610db3565b005b610295610f78565b6040516102a29190611b87565b60405180910390f35b6102b3610fd0565b005b6102cf60048036038101906102ca9190611823565b61105b565b005b6102eb60048036038101906102e69190611742565b61118b565b005b6103076004803603810190610302919061176b565b611334565b005b610323600480360381019061031e91906118c7565b611405565b005b61032d61150e565b73ffffffffffffffffffffffffffffffffffffffff1661034b610b1f565b73ffffffffffffffffffffffffffffffffffffffff16146103a1576040517f08c379a000000000000000000000000000000000000000000000000000000000815260040161039890611cbe565b60405180910390fd5b8060035481106103e6576040517f08c379a00000000000000000000000000000000000000000000000000000000081526004016103dd90611c7e565b60405180910390fd5b600060046000848152602001908152602001600020905061040683610552565b1561045f5760028160010160146101000a81548160ff02191690836004811115610459577f4e487b7100000000000000000000000000000000000000000000000000000000600052602160045260246000fd5b02179055505b61046883610552565b61054d5760008160010160146101000a81548160ff021916908360048111156104ba577f4e487b7100000000000000000000000000000000000000000000000000000000600052602160045260246000fd5b0217905550600660009054906101000a900473ffffffffffffffffffffffffffffffffffffffff1673ffffffffffffffffffffffffffffffffffffffff166392f8c3c8846040518263ffffffff1660e01b815260040161051a9190611cde565b600060405180830381600087803b15801561053457600080fd5b505af1158015610548573d6000803e3d6000fd5b505050505b505050565b60008060046000848152602001908152602001600020905061057383611516565b801561058d5750806007016000016000015481600a015410155b915050919050565b8060035481106105da576040517f08c379a00000000000000000000000000000000000000000000000000000000081526004016105d190611c7e565b60405180910390fd5b600660009054906101000a900473ffffffffffffffffffffffffffffffffffffffff1673ffffffffffffffffffffffffffffffffffffffff166337de615f836040518263ffffffff1660e01b81526004016106359190611cde565b600060405180830381600087803b15801561064f57600080fd5b505af1158015610663573d6000803e3d6000fd5b50505050600060046000848152602001908152602001600020905060048160010160146101000a81548160ff021916908360048111156106cc577f4e487b7100000000000000000000000000000000000000000000000000000000600052602160045260246000fd5b0217905550505050565b606060006004600084815260200190815260200160002090508060060180548060200260200160405190810160405280929190818152602001828054801561073d57602002820191906000526020600020905b815481526020019060010190808311610729575b5050505050915050919050565b6005818154811061075a57600080fd5b906000526020600020016000915090505481565b61077661150e565b73ffffffffffffffffffffffffffffffffffffffff16610794610b1f565b73ffffffffffffffffffffffffffffffffffffffff16146107ea576040517f08c379a00000000000000000000000000000000000000000000000000000000081526004016107e190611cbe565b60405180910390fd5b600073ffffffffffffffffffffffffffffffffffffffff1660008054906101000a900473ffffffffffffffffffffffffffffffffffffffff1673ffffffffffffffffffffffffffffffffffffffff167f8be0079c531659141344cd1fd0a4f28419497f9722a3daafe3b4186f6b6457e060405160405180910390a360008060006101000a81548173ffffffffffffffffffffffffffffffffffffffff021916908373ffffffffffffffffffffffffffffffffffffffff160217905550565b565b60046020528060005260406000206000915090508060000180546108cd90611f27565b80601f01602080910402602001604051908101604052809291908181526020018280546108f990611f27565b80156109465780601f1061091b57610100808354040283529160200191610946565b820191906000526020600020905b81548152906001019060200180831161092957829003601f168201915b5050505050908060010160009054906101000a900473ffffffffffffffffffffffffffffffffffffffff16908060010160149054906101000a900460ff16908060020160405180604001604052908160008201548152602001600182015481525050908060040160405180604001604052908160008201548152602001600182015481525050908060070160405180604001604052908160008201604051806040016040529081600082015481526020016001820154815250508152602001600282018054610a1490611f27565b80601f0160208091040260200160405190810160405280929190818152602001828054610a4090611f27565b8015610a8d5780601f10610a6257610100808354040283529160200191610a8d565b820191906000526020600020905b815481529060010190602001808311610a7057829003601f168201915b5050505050815250509080600a0154905087565b610aa961150e565b73ffffffffffffffffffffffffffffffffffffffff16610ac7610b1f565b73ffffffffffffffffffffffffffffffffffffffff1614610b1d576040517f08c379a0000000000000000000000000000000000000000000000000000000008152600401610b1490611cbe565b60405180910390fd5b565b60008060009054906101000a900473ffffffffffffffffffffffffffffffffffffffff16905090565b610b5061150e565b73ffffffffffffffffffffffffffffffffffffffff16610b6e610b1f565b73ffffffffffffffffffffffffffffffffffffffff1614610bc4576040517f08c379a0000000000000000000000000000000000000000000000000000000008152600401610bbb90611cbe565b60405180910390fd5b6000600360008154610bd590611f8a565b9190508190559050600060046000838152602001908152602001600020905086816000019080519060200190610c0c9291906115f8565b5060008160010160146101000a81548160ff02191690836004811115610c5b577f4e487b7100000000000000000000000000000000000000000000000000000000600052602160045260246000fd5b0217905550428160020160000181905550858160020160010181905550848160040160010181905550838160070160000160000181905550828160070160000160010181905550338160010160006101000a81548173ffffffffffffffffffffffffffffffffffffffff021916908373ffffffffffffffffffffffffffffffffffffffff1602179055506005829080600181540180825580915050600190039060005260206000200160009091909190915055600660009054906101000a900473ffffffffffffffffffffffffffffffffffffffff1673ffffffffffffffffffffffffffffffffffffffff1663f7d81ce783338942610d5a9190611dec565b6040518463ffffffff1660e01b8152600401610d7893929190611cf9565b600060405180830381600087803b158015610d9257600080fd5b505af1158015610da6573d6000803e3d6000fd5b5050505050505050505050565b836003548110610df8576040517f08c379a0000000000000000000000000000000000000000000000000000000008152600401610def90611c7e565b60405180910390fd5b84600060046000838152602001908152602001600020905080600201600101548160020160000154610e2a9190611dec565b421115610e855760048160010160146101000a81548160ff02191690836004811115610e7f577f4e487b7100000000000000000000000000000000000000000000000000000000600052602160045260246000fd5b02179055505b610e90826004611553565b15610ed0576040517f08c379a0000000000000000000000000000000000000000000000000000000008152600401610ec790611c9e565b60405180910390fd5b600060046000898152602001908152602001600020905060018160010160146101000a81548160ff02191690836004811115610f35577f4e487b7100000000000000000000000000000000000000000000000000000000600052602160045260246000fd5b021790555085816004016000018190555084816004016001018190555086816007016002019080519060200190610f6d9291906115f8565b505050505050505050565b60606005805480602002602001604051908101604052809291908181526020018280548015610fc657602002820191906000526020600020905b815481526020019060010190808311610fb2575b5050505050905090565b60005b60035481101561103d5761102a6005828154811061101a577f4e487b7100000000000000000000000000000000000000000000000000000000600052603260045260246000fd5b9060005260206000200154610595565b808061103590611f8a565b915050610fd3565b506001600260006101000a81548160ff021916908315150217905550565b61106361150e565b73ffffffffffffffffffffffffffffffffffffffff16611081610b1f565b73ffffffffffffffffffffffffffffffffffffffff16146110d7576040517f08c379a00000000000000000000000000000000000000000000000000000000081526004016110ce90611cbe565b60405180910390fd5b80600354811061111c576040517f08c379a000000000000000000000000000000000000000000000000000000000815260040161111390611c7e565b60405180910390fd5b600060046000848152602001908152602001600020905060008160010160146101000a81548160ff02191690836004811115611181577f4e487b7100000000000000000000000000000000000000000000000000000000600052602160045260246000fd5b0217905550505050565b61119361150e565b73ffffffffffffffffffffffffffffffffffffffff166111b1610b1f565b73ffffffffffffffffffffffffffffffffffffffff1614611207576040517f08c379a00000000000000000000000000000000000000000000000000000000081526004016111fe90611cbe565b60405180910390fd5b600073ffffffffffffffffffffffffffffffffffffffff168173ffffffffffffffffffffffffffffffffffffffff161415611277576040517f08c379a000000000000000000000000000000000000000000000000000000000815260040161126e90611c5e565b60405180910390fd5b8073ffffffffffffffffffffffffffffffffffffffff1660008054906101000a900473ffffffffffffffffffffffffffffffffffffffff1673ffffffffffffffffffffffffffffffffffffffff167f8be0079c531659141344cd1fd0a4f28419497f9722a3daafe3b4186f6b6457e060405160405180910390a3806000806101000a81548173ffffffffffffffffffffffffffffffffffffffff021916908373ffffffffffffffffffffffffffffffffffffffff16021790555050565b80600660006101000a81548173ffffffffffffffffffffffffffffffffffffffff021916908373ffffffffffffffffffffffffffffffffffffffff160217905550600660009054906101000a900473ffffffffffffffffffffffffffffffffffffffff1673ffffffffffffffffffffffffffffffffffffffff166359c3f3e0306040518263ffffffff1660e01b81526004016113d09190611bc4565b600060405180830381600087803b1580156113ea57600080fd5b505af11580156113fe573d6000803e3d6000fd5b5050505050565b61140d61150e565b73ffffffffffffffffffffffffffffffffffffffff1661142b610b1f565b73ffffffffffffffffffffffffffffffffffffffff1614611481576040517f08c379a000000000000000000000000000000000000000000000000000000000815260040161147890611cbe565b60405180910390fd5b8160035481106114c6576040517f08c379a00000000000000000000000000000000000000000000000000000000081526004016114bd90611c7e565b60405180910390fd5b60006004600085815260200190815260200160002090508060060183908060018154018082558091505060019003906000526020600020016000909190919091505550505050565b600033905090565b600080600460008481526020019081526020016000209050806004016001015481600401600001546115489190611dec565b421015915050919050565b6000806004600085815260200190815260200160002090508260048111156115a4577f4e487b7100000000000000000000000000000000000000000000000000000000600052602160045260246000fd5b8160010160149054906101000a900460ff1660048111156115ee577f4e487b7100000000000000000000000000000000000000000000000000000000600052602160045260246000fd5b1491505092915050565b82805461160490611f27565b90600052602060002090601f016020900481019282611626576000855561166d565b82601f1061163f57805160ff191683800117855561166d565b8280016001018555821561166d579182015b8281111561166c578251825591602001919060010190611651565b5b50905061167a919061167e565b5090565b5b8082111561169757600081600090555060010161167f565b5090565b60006116ae6116a984611d55565b611d30565b9050828152602081018484840111156116c657600080fd5b6116d1848285611ee5565b509392505050565b6000813590506116e88161217e565b92915050565b6000813590506116fd81612195565b92915050565b600082601f83011261171457600080fd5b813561172484826020860161169b565b91505092915050565b60008135905061173c816121ac565b92915050565b60006020828403121561175457600080fd5b6000611762848285016116d9565b91505092915050565b60006020828403121561177d57600080fd5b600061178b848285016116ee565b91505092915050565b600080600080600060a086880312156117ac57600080fd5b600086013567ffffffffffffffff8111156117c657600080fd5b6117d288828901611703565b95505060206117e38882890161172d565b94505060406117f48882890161172d565b93505060606118058882890161172d565b92505060806118168882890161172d565b9150509295509295909350565b60006020828403121561183557600080fd5b60006118438482850161172d565b91505092915050565b6000806000806080858703121561186257600080fd5b60006118708782880161172d565b945050602085013567ffffffffffffffff81111561188d57600080fd5b61189987828801611703565b93505060406118aa8782880161172d565b92505060606118bb8782880161172d565b91505092959194509250565b600080604083850312156118da57600080fd5b60006118e88582860161172d565b92505060206118f98582860161172d565b9150509250929050565b600061190f8383611b4e565b60208301905092915050565b61192481611e42565b82525050565b600061193582611d96565b61193f8185611db9565b935061194a83611d86565b8060005b8381101561197b5781516119628882611903565b975061196d83611dac565b92505060018101905061194e565b5085935050505092915050565b61199181611e54565b82525050565b6119a081611eaf565b82525050565b6119af81611ed3565b82525050565b60006119c082611da1565b6119ca8185611dca565b93506119da818560208601611ef4565b6119e38161208f565b840191505092915050565b60006119f982611da1565b611a038185611ddb565b9350611a13818560208601611ef4565b611a1c8161208f565b840191505092915050565b6000611a34602683611ddb565b9150611a3f826120a0565b604082019050919050565b6000611a57601e83611ddb565b9150611a62826120ef565b602082019050919050565b6000611a7a601483611ddb565b9150611a8582612118565b602082019050919050565b6000611a9d602083611ddb565b9150611aa882612141565b602082019050919050565b604082016000820151611ac96000850182611b4e565b506020820151611adc6020850182611b4e565b50505050565b604082016000820151611af86000850182611b4e565b506020820151611b0b6020850182611b4e565b50505050565b6000606083016000830151611b296000860182611ae2565b5060208301518482036040860152611b4182826119b5565b9150508091505092915050565b611b5781611ea5565b82525050565b611b6681611ea5565b82525050565b6000602082019050611b81600083018461191b565b92915050565b60006020820190508181036000830152611ba1818461192a565b905092915050565b6000602082019050611bbe6000830184611988565b92915050565b6000602082019050611bd96000830184611997565b92915050565b6000610120820190508181036000830152611bfa818a6119ee565b9050611c09602083018961191b565b611c1660408301886119a6565b611c236060830187611ab3565b611c3060a0830186611ab3565b81810360e0830152611c428185611b11565b9050611c52610100830184611b5d565b98975050505050505050565b60006020820190508181036000830152611c7781611a27565b9050919050565b60006020820190508181036000830152611c9781611a4a565b9050919050565b60006020820190508181036000830152611cb781611a6d565b9050919050565b60006020820190508181036000830152611cd781611a90565b9050919050565b6000602082019050611cf36000830184611b5d565b92915050565b6000606082019050611d0e6000830186611b5d565b611d1b602083018561191b565b611d286040830184611b5d565b949350505050565b6000611d3a611d4b565b9050611d468282611f59565b919050565b6000604051905090565b600067ffffffffffffffff821115611d7057611d6f612060565b5b611d798261208f565b9050602081019050919050565b6000819050602082019050919050565b600081519050919050565b600081519050919050565b6000602082019050919050565b600082825260208201905092915050565b600082825260208201905092915050565b600082825260208201905092915050565b6000611df782611ea5565b9150611e0283611ea5565b9250827fffffffffffffffffffffffffffffffffffffffffffffffffffffffffffffffff03821115611e3757611e36611fd3565b5b828201905092915050565b6000611e4d82611e85565b9050919050565b60008115159050919050565b6000611e6b82611e42565b9050919050565b6000819050611e808261216a565b919050565b600073ffffffffffffffffffffffffffffffffffffffff82169050919050565b6000819050919050565b6000611eba82611ec1565b9050919050565b6000611ecc82611e85565b9050919050565b6000611ede82611e72565b9050919050565b82818337600083830152505050565b60005b83811015611f12578082015181840152602081019050611ef7565b83811115611f21576000848401525b50505050565b60006002820490506001821680611f3f57607f821691505b60208210811415611f5357611f52612031565b5b50919050565b611f628261208f565b810181811067ffffffffffffffff82111715611f8157611f80612060565b5b80604052505050565b6000611f9582611ea5565b91507fffffffffffffffffffffffffffffffffffffffffffffffffffffffffffffffff821415611fc857611fc7611fd3565b5b600182019050919050565b7f4e487b7100000000000000000000000000000000000000000000000000000000600052601160045260246000fd5b7f4e487b7100000000000000000000000000000000000000000000000000000000600052602160045260246000fd5b7f4e487b7100000000000000000000000000000000000000000000000000000000600052602260045260246000fd5b7f4e487b7100000000000000000000000000000000000000000000000000000000600052604160045260246000fd5b6000601f19601f8301169050919050565b7f4f776e61626c653a206e6577206f776e657220697320746865207a65726f206160008201527f6464726573730000000000000000000000000000000000000000000000000000602082015250565b7f4c61756e6368506f6f6c204964206973206f7574206f662072616e67652e0000600082015250565b7f4c61756e6368506f6f6c20697320636c6f736564000000000000000000000000600082015250565b7f4f776e61626c653a2063616c6c6572206973206e6f7420746865206f776e6572600082015250565b6005811061217b5761217a612002565b5b50565b61218781611e42565b811461219257600080fd5b50565b61219e81611e60565b81146121a957600080fd5b50565b6121b581611ea5565b81146121c057600080fd5b5056fea2646970667358221220e784a4637ef4d9bc2cd0008eb0bbb07c510f1f9d807dc5436d037fde04299e9064736f6c63430008040033",
  "linkReferences": {},
  "deployedLinkReferences": {}
}