{
  "_format": "hh-sol-artifact-1",
  "contractName": "MockERC20",
  "sourceName": "contracts/test/MockERC20.sol",
  "abi": [
    {
      "inputs": [
        {
          "internalType": "uint256",
          "name": "amountToMint",
          "type": "uint256"
        }
      ],
      "stateMutability": "nonpayable",
      "type": "constructor"
    },
    {
      "anonymous": false,
      "inputs": [
        {
          "indexed": true,
          "internalType": "address",
          "name": "owner",
          "type": "address"
        },
        {
          "indexed": true,
          "internalType": "address",
          "name": "spender",
          "type": "address"
        },
        {
          "indexed": false,
          "internalType": "uint256",
          "name": "value",
          "type": "uint256"
        }
      ],
      "name": "Approval",
      "type": "event"
    },
    {
      "anonymous": false,
      "inputs": [
        {
          "indexed": true,
          "internalType": "address",
          "name": "from",
          "type": "address"
        },
        {
          "indexed": true,
          "internalType": "address",
          "name": "to",
          "type": "address"
        },
        {
          "indexed": false,
          "internalType": "uint256",
          "name": "value",
          "type": "uint256"
        }
      ],
      "name": "Transfer",
      "type": "event"
    },
    {
      "inputs": [
        {
          "internalType": "address",
          "name": "",
          "type": "address"
        },
        {
          "internalType": "address",
          "name": "",
          "type": "address"
        }
      ],
      "name": "allowance",
      "outputs": [
        {
          "internalType": "uint256",
          "name": "",
          "type": "uint256"
        }
      ],
      "stateMutability": "view",
      "type": "function"
    },
    {
      "inputs": [
        {
          "internalType": "address",
          "name": "spender",
          "type": "address"
        },
        {
          "internalType": "uint256",
          "name": "amount",
          "type": "uint256"
        }
      ],
      "name": "approve",
      "outputs": [
        {
          "internalType": "bool",
          "name": "",
          "type": "bool"
        }
      ],
      "stateMutability": "nonpayable",
      "type": "function"
    },
    {
      "inputs": [
        {
          "internalType": "address",
          "name": "",
          "type": "address"
        }
      ],
      "name": "balanceOf",
      "outputs": [
        {
          "internalType": "uint256",
          "name": "",
          "type": "uint256"
        }
      ],
      "stateMutability": "view",
      "type": "function"
    },
    {
      "inputs": [
        {
          "internalType": "address",
          "name": "to",
          "type": "address"
        },
        {
          "internalType": "uint256",
          "name": "amount",
          "type": "uint256"
        }
      ],
      "name": "mint",
      "outputs": [],
      "stateMutability": "nonpayable",
      "type": "function"
    },
    {
      "inputs": [
        {
          "internalType": "address",
          "name": "recipient",
          "type": "address"
        },
        {
          "internalType": "uint256",
          "name": "amount",
          "type": "uint256"
        }
      ],
      "name": "transfer",
      "outputs": [
        {
          "internalType": "bool",
          "name": "",
          "type": "bool"
        }
      ],
      "stateMutability": "nonpayable",
      "type": "function"
    },
    {
      "inputs": [
        {
          "internalType": "address",
          "name": "sender",
          "type": "address"
        },
        {
          "internalType": "address",
          "name": "recipient",
          "type": "address"
        },
        {
          "internalType": "uint256",
          "name": "amount",
          "type": "uint256"
        }
      ],
      "name": "transferFrom",
      "outputs": [
        {
          "internalType": "bool",
          "name": "",
          "type": "bool"
        }
      ],
      "stateMutability": "nonpayable",
      "type": "function"
    }
  ],
  "bytecode": "0x60806040523480156200001157600080fd5b5060405162000f7a38038062000f7a833981810160405281019062000037919062000145565b6200004933826200005060201b60201c565b50620002a4565b6000816000808573ffffffffffffffffffffffffffffffffffffffff1673ffffffffffffffffffffffffffffffffffffffff168152602001908152602001600020546200009e9190620001cb565b905081811015620000e6576040517f08c379a0000000000000000000000000000000000000000000000000000000008152600401620000dd9062000198565b60405180910390fd5b806000808573ffffffffffffffffffffffffffffffffffffffff1673ffffffffffffffffffffffffffffffffffffffff16815260200190815260200160002081905550505050565b6000815190506200013f816200028a565b92915050565b6000602082840312156200015857600080fd5b600062000168848285016200012e565b91505092915050565b600062000180601083620001ba565b91506200018d8262000261565b602082019050919050565b60006020820190508181036000830152620001b38162000171565b9050919050565b600082825260208201905092915050565b6000620001d88262000228565b9150620001e58362000228565b9250827fffffffffffffffffffffffffffffffffffffffffffffffffffffffffffffffff038211156200021d576200021c62000232565b5b828201905092915050565b6000819050919050565b7f4e487b7100000000000000000000000000000000000000000000000000000000600052601160045260246000fd5b7f6f766572666c6f772062616c616e636500000000000000000000000000000000600082015250565b620002958162000228565b8114620002a157600080fd5b50565b610cc680620002b46000396000f3fe608060405234801561001057600080fd5b50600436106100625760003560e01c8063095ea7b31461006757806323b872dd1461009757806340c10f19146100c757806370a08231146100e3578063a9059cbb14610113578063dd62ed3e14610143575b600080fd5b610081600480360381019061007c91906108a4565b610173565b60405161008e91906109ad565b60405180910390f35b6100b160048036038101906100ac9190610855565b610265565b6040516100be91906109ad565b60405180910390f35b6100e160048036038101906100dc91906108a4565b61048b565b005b6100fd60048036038101906100f891906107f0565b610564565b60405161010a9190610a68565b60405180910390f35b61012d600480360381019061012891906108a4565b61057c565b60405161013a91906109ad565b60405180910390f35b61015d60048036038101906101589190610819565b6107a1565b60405161016a9190610a68565b60405180910390f35b600081600160003373ffffffffffffffffffffffffffffffffffffffff1673ffffffffffffffffffffffffffffffffffffffff16815260200190815260200160002060008573ffffffffffffffffffffffffffffffffffffffff1673ffffffffffffffffffffffffffffffffffffffff168152602001908152602001600020819055508273ffffffffffffffffffffffffffffffffffffffff163373ffffffffffffffffffffffffffffffffffffffff167f8c5be1e5ebec7d5bd14f71427d1e84f3dd0314c0f7b2291e5b200ac8c7c3b925846040516102539190610a68565b60405180910390a36001905092915050565b6000806000808573ffffffffffffffffffffffffffffffffffffffff1673ffffffffffffffffffffffffffffffffffffffff1681526020019081526020016000205490508083826102b69190610a94565b10156102f7576040517f08c379a00000000000000000000000000000000000000000000000000000000081526004016102ee906109c8565b60405180910390fd5b82816103039190610a94565b6000808673ffffffffffffffffffffffffffffffffffffffff1673ffffffffffffffffffffffffffffffffffffffff1681526020019081526020016000208190555060008060008773ffffffffffffffffffffffffffffffffffffffff1673ffffffffffffffffffffffffffffffffffffffff168152602001908152602001600020549050838110156103cb576040517f08c379a00000000000000000000000000000000000000000000000000000000081526004016103c290610a48565b60405180910390fd5b83816103d79190610aea565b6000808873ffffffffffffffffffffffffffffffffffffffff1673ffffffffffffffffffffffffffffffffffffffff168152602001908152602001600020819055508473ffffffffffffffffffffffffffffffffffffffff168673ffffffffffffffffffffffffffffffffffffffff167fddf252ad1be2c89b69c2b068fc378daa952ba7f163c4a11628f55a4df523b3ef866040516104769190610a68565b60405180910390a36001925050509392505050565b6000816000808573ffffffffffffffffffffffffffffffffffffffff1673ffffffffffffffffffffffffffffffffffffffff168152602001908152602001600020546104d79190610a94565b90508181101561051c576040517f08c379a0000000000000000000000000000000000000000000000000000000008152600401610513906109e8565b60405180910390fd5b806000808573ffffffffffffffffffffffffffffffffffffffff1673ffffffffffffffffffffffffffffffffffffffff16815260200190815260200160002081905550505050565b60006020528060005260406000206000915090505481565b6000806000803373ffffffffffffffffffffffffffffffffffffffff1673ffffffffffffffffffffffffffffffffffffffff16815260200190815260200160002054905082811015610603576040517f08c379a00000000000000000000000000000000000000000000000000000000081526004016105fa90610a08565b60405180910390fd5b828161060f9190610aea565b6000803373ffffffffffffffffffffffffffffffffffffffff1673ffffffffffffffffffffffffffffffffffffffff1681526020019081526020016000208190555060008060008673ffffffffffffffffffffffffffffffffffffffff1673ffffffffffffffffffffffffffffffffffffffff1681526020019081526020016000205490508084826106a19190610a94565b10156106e2576040517f08c379a00000000000000000000000000000000000000000000000000000000081526004016106d990610a28565b60405180910390fd5b83816106ee9190610a94565b6000808773ffffffffffffffffffffffffffffffffffffffff1673ffffffffffffffffffffffffffffffffffffffff168152602001908152602001600020819055508473ffffffffffffffffffffffffffffffffffffffff163373ffffffffffffffffffffffffffffffffffffffff167fddf252ad1be2c89b69c2b068fc378daa952ba7f163c4a11628f55a4df523b3ef8660405161078d9190610a68565b60405180910390a360019250505092915050565b6001602052816000526040600020602052806000526040600020600091509150505481565b6000813590506107d581610c62565b92915050565b6000813590506107ea81610c79565b92915050565b60006020828403121561080257600080fd5b6000610810848285016107c6565b91505092915050565b6000806040838503121561082c57600080fd5b600061083a858286016107c6565b925050602061084b858286016107c6565b9150509250929050565b60008060006060848603121561086a57600080fd5b6000610878868287016107c6565b9350506020610889868287016107c6565b925050604061089a868287016107db565b9150509250925092565b600080604083850312156108b757600080fd5b60006108c5858286016107c6565b92505060206108d6858286016107db565b9150509250929050565b6108e981610b30565b82525050565b60006108fc601a83610a83565b915061090782610b95565b602082019050919050565b600061091f601083610a83565b915061092a82610bbe565b602082019050919050565b6000610942601483610a83565b915061094d82610be7565b602082019050919050565b6000610965601a83610a83565b915061097082610c10565b602082019050919050565b6000610988601883610a83565b915061099382610c39565b602082019050919050565b6109a781610b5c565b82525050565b60006020820190506109c260008301846108e0565b92915050565b600060208201905081810360008301526109e1816108ef565b9050919050565b60006020820190508181036000830152610a0181610912565b9050919050565b60006020820190508181036000830152610a2181610935565b9050919050565b60006020820190508181036000830152610a4181610958565b9050919050565b60006020820190508181036000830152610a618161097b565b9050919050565b6000602082019050610a7d600083018461099e565b92915050565b600082825260208201905092915050565b6000610a9f82610b5c565b9150610aaa83610b5c565b9250827fffffffffffffffffffffffffffffffffffffffffffffffffffffffffffffffff03821115610adf57610ade610b66565b5b828201905092915050565b6000610af582610b5c565b9150610b0083610b5c565b925082821015610b1357610b12610b66565b5b828203905092915050565b6000610b2982610b3c565b9050919050565b60008115159050919050565b600073ffffffffffffffffffffffffffffffffffffffff82169050919050565b6000819050919050565b7f4e487b7100000000000000000000000000000000000000000000000000000000600052601160045260246000fd5b7f6f766572666c6f772062616c616e636520726563697069656e74000000000000600082015250565b7f6f766572666c6f772062616c616e636500000000000000000000000000000000600082015250565b7f696e73756666696369656e742062616c616e6365000000000000000000000000600082015250565b7f726563697069656e742062616c616e6365206f766572666c6f77000000000000600082015250565b7f756e646572666c6f772062616c616e63652073656e6465720000000000000000600082015250565b610c6b81610b1e565b8114610c7657600080fd5b50565b610c8281610b5c565b8114610c8d57600080fd5b5056fea26469706673582212209dcdbd2d6b0d019e0d6103b65126dc7a1f0750f08b7f81aa737c0f3113f8fc1c64736f6c63430008040033",
  "linkReferences": {},
  "deployedLinkReferences": {}
}