{
  "_format": "hh-sol-artifact-1",
  "contractName": "StakeVault",
  "sourceName": "contracts/new_StakeVault.sol",
  "abi": [
    {
      "anonymous": false,
      "inputs": [
        {
          "indexed": true,
          "internalType": "address",
          "name": "previousOwner",
          "type": "address"
        },
        {
          "indexed": true,
          "internalType": "address",
          "name": "newOwner",
          "type": "address"
        }
      ],
      "name": "OwnershipTransferred",
      "type": "event"
    },
    {
      "inputs": [
        {
          "internalType": "uint256",
          "name": "poolId",
          "type": "uint256"
        },
        {
          "internalType": "address",
          "name": "sponsor",
          "type": "address"
        },
        {
          "internalType": "uint256",
          "name": "expiration",
          "type": "uint256"
        }
      ],
      "name": "addPool",
      "outputs": [],
      "stateMutability": "nonpayable",
      "type": "function"
    },
    {
      "inputs": [
        {
          "internalType": "uint256",
          "name": "poolId",
          "type": "uint256"
        },
        {
          "internalType": "address",
          "name": "token",
          "type": "address"
        },
        {
          "internalType": "uint256",
          "name": "amount",
          "type": "uint256"
        }
      ],
      "name": "addStake",
      "outputs": [
        {
          "internalType": "uint256",
          "name": "",
          "type": "uint256"
        }
      ],
      "stateMutability": "nonpayable",
      "type": "function"
    },
    {
      "inputs": [
        {
          "internalType": "uint256",
          "name": "poolId",
          "type": "uint256"
        }
      ],
      "name": "claim",
      "outputs": [],
      "stateMutability": "nonpayable",
      "type": "function"
    },
    {
      "inputs": [
        {
          "internalType": "uint256",
          "name": "poolId",
          "type": "uint256"
        }
      ],
      "name": "closePool",
      "outputs": [],
      "stateMutability": "nonpayable",
      "type": "function"
    },
    {
      "inputs": [
        {
          "internalType": "uint256",
          "name": "stakeId",
          "type": "uint256"
        }
      ],
      "name": "commitStake",
      "outputs": [],
      "stateMutability": "nonpayable",
      "type": "function"
    },
    {
      "inputs": [
        {
          "internalType": "address",
          "name": "investorID",
          "type": "address"
        }
      ],
      "name": "getInvestorStakes",
      "outputs": [
        {
          "internalType": "uint256[]",
          "name": "",
          "type": "uint256[]"
        }
      ],
      "stateMutability": "view",
      "type": "function"
    },
    {
      "inputs": [],
      "name": "owner",
      "outputs": [
        {
          "internalType": "address",
          "name": "",
          "type": "address"
        }
      ],
      "stateMutability": "view",
      "type": "function"
    },
    {
      "inputs": [],
      "name": "renounceOwnership",
      "outputs": [],
      "stateMutability": "nonpayable",
      "type": "function"
    },
    {
      "inputs": [
        {
          "internalType": "uint256",
          "name": "poolId",
          "type": "uint256"
        }
      ],
      "name": "setPoolClaimStatus",
      "outputs": [],
      "stateMutability": "nonpayable",
      "type": "function"
    },
    {
      "inputs": [
        {
          "internalType": "contract LaunchPoolTracker",
          "name": "poolTrackerContract_",
          "type": "address"
        }
      ],
      "name": "setPoolContract",
      "outputs": [],
      "stateMutability": "nonpayable",
      "type": "function"
    },
    {
      "inputs": [
        {
          "internalType": "address",
          "name": "",
          "type": "address"
        },
        {
          "internalType": "uint256",
          "name": "",
          "type": "uint256"
        }
      ],
      "name": "stakesByInvestor",
      "outputs": [
        {
          "internalType": "uint256",
          "name": "",
          "type": "uint256"
        }
      ],
      "stateMutability": "view",
      "type": "function"
    },
    {
      "inputs": [
        {
          "internalType": "address",
          "name": "newOwner",
          "type": "address"
        }
      ],
      "name": "transferOwnership",
      "outputs": [],
      "stateMutability": "nonpayable",
      "type": "function"
    },
    {
      "inputs": [
        {
          "internalType": "uint256",
          "name": "poolId",
          "type": "uint256"
        }
      ],
      "name": "unCommitStakes",
      "outputs": [],
      "stateMutability": "nonpayable",
      "type": "function"
    },
    {
      "inputs": [
        {
          "internalType": "uint256",
          "name": "stakeId",
          "type": "uint256"
        }
      ],
      "name": "unStake",
      "outputs": [],
      "stateMutability": "nonpayable",
      "type": "function"
    }
  ],
  "bytecode": "0x608060405234801561001057600080fd5b5060006100216100c460201b60201c565b9050806000806101000a81548173ffffffffffffffffffffffffffffffffffffffff021916908373ffffffffffffffffffffffffffffffffffffffff1602179055508073ffffffffffffffffffffffffffffffffffffffff16600073ffffffffffffffffffffffffffffffffffffffff167f8be0079c531659141344cd1fd0a4f28419497f9722a3daafe3b4186f6b6457e060405160405180910390a3506100cc565b600033905090565b61210c806100db6000396000f3fe608060405234801561001057600080fd5b50600436106100ea5760003560e01c8063715018a61161008c57806392f8c3c81161006657806392f8c3c814610233578063d43545051461024f578063f2fde38b1461026b578063f7d81ce714610287576100ea565b8063715018a6146101ef57806378dd7e6a146101f95780638da5cb5b14610215576100ea565b806337de615f116100c857806337de615f1461016b57806359c3f3e0146101875780635d3eea91146101a3578063643f1101146101bf576100ea565b80630fe7e32e146100ef578063154b6b3a1461011f578063379607f51461014f575b600080fd5b610109600480360381019061010491906117b8565b6102a3565b6040516101169190611c9c565b60405180910390f35b6101396004803603810190610134919061178f565b6102d4565b6040516101469190611b3a565b60405180910390f35b61016960048036038101906101649190611846565b61036b565b005b61018560048036038101906101809190611846565b6108ab565b005b6101a1600480360381019061019c919061181d565b610ad7565b005b6101bd60048036038101906101b89190611846565b610b1b565b005b6101d960048036038101906101d4919061186f565b610c23565b6040516101e69190611c9c565b60405180910390f35b6101f7610f64565b005b610213600480360381019061020e9190611846565b61109e565b005b61021d61124c565b60405161022a9190611abf565b60405180910390f35b61024d60048036038101906102489190611846565b611275565b005b61026960048036038101906102649190611846565b6112e7565b005b6102856004803603810190610280919061178f565b61137d565b005b6102a1600480360381019061029c919061186f565b611526565b005b600560205281600052604060002081815481106102bf57600080fd5b90600052602060002001600091509150505481565b6060600560008373ffffffffffffffffffffffffffffffffffffffff1673ffffffffffffffffffffffffffffffffffffffff16815260200190815260200160002080548060200260200160405190810160405280929190818152602001828054801561035f57602002820191906000526020600020905b81548152602001906001019080831161034b575b50505050509050919050565b6103736115e2565b73ffffffffffffffffffffffffffffffffffffffff1661039161124c565b73ffffffffffffffffffffffffffffffffffffffff16146103e7576040517f08c379a00000000000000000000000000000000000000000000000000000000081526004016103de90611c1c565b60405180910390fd5b60006006600083815260200190815260200160002090508060000160009054906101000a900473ffffffffffffffffffffffffffffffffffffffff1673ffffffffffffffffffffffffffffffffffffffff163373ffffffffffffffffffffffffffffffffffffffff1614610490576040517f08c379a000000000000000000000000000000000000000000000000000000000815260040161048790611bdc565b60405180910390fd5b600360048111156104ca577f4e487b7100000000000000000000000000000000000000000000000000000000600052602160045260246000fd5b8160000160149054906101000a900460ff166004811115610514577f4e487b7100000000000000000000000000000000000000000000000000000000600052602160045260246000fd5b14610554576040517f08c379a000000000000000000000000000000000000000000000000000000000815260040161054b90611c7c565b60405180910390fd5b60005b60035481101561085357826004600083815260200190815260200160002060040154141561084057600115156004600083815260200190815260200160002060050160009054906101000a900460ff16151514156106f0576004600082815260200190815260200160002060020160009054906101000a900473ffffffffffffffffffffffffffffffffffffffff1673ffffffffffffffffffffffffffffffffffffffff1663a9059cbb8360000160009054906101000a900473ffffffffffffffffffffffffffffffffffffffff1660046000858152602001908152602001600020600301546040518363ffffffff1660e01b815260040161065a929190611b11565b602060405180830381600087803b15801561067457600080fd5b505af1158015610688573d6000803e3d6000fd5b505050506040513d601f19601f820116820180604052508101906106ac91906117f4565b6106eb576040517f08c379a00000000000000000000000000000000000000000000000000000000081526004016106e290611b5c565b60405180910390fd5b61083f565b6004600082815260200190815260200160002060020160009054906101000a900473ffffffffffffffffffffffffffffffffffffffff1673ffffffffffffffffffffffffffffffffffffffff1663a9059cbb6004600084815260200190815260200160002060010160009054906101000a900473ffffffffffffffffffffffffffffffffffffffff1660046000858152602001908152602001600020600301546040518363ffffffff1660e01b81526004016107ad929190611b11565b602060405180830381600087803b1580156107c757600080fd5b505af11580156107db573d6000803e3d6000fd5b505050506040513d601f19601f820116820180604052508101906107ff91906117f4565b61083e576040517f08c379a000000000000000000000000000000000000000000000000000000000815260040161083590611b9c565b60405180910390fd5b5b5b808061084b90611d84565b915050610557565b5060048160000160146101000a81548160ff021916908360048111156108a2577f4e487b7100000000000000000000000000000000000000000000000000000000600052602160045260246000fd5b02179055505050565b6108b36115e2565b73ffffffffffffffffffffffffffffffffffffffff166108d161124c565b73ffffffffffffffffffffffffffffffffffffffff1614610927576040517f08c379a000000000000000000000000000000000000000000000000000000000815260040161091e90611c1c565b60405180910390fd5b60006006600083815260200190815260200160002090508060000160009054906101000a900473ffffffffffffffffffffffffffffffffffffffff1673ffffffffffffffffffffffffffffffffffffffff163373ffffffffffffffffffffffffffffffffffffffff1614806109e95750600160009054906101000a900473ffffffffffffffffffffffffffffffffffffffff1673ffffffffffffffffffffffffffffffffffffffff163373ffffffffffffffffffffffffffffffffffffffff16145b806109f8575042816001015411155b610a37576040517f08c379a0000000000000000000000000000000000000000000000000000000008152600401610a2e90611c5c565b60405180910390fd5b60048160000160146101000a81548160ff02191690836004811115610a85577f4e487b7100000000000000000000000000000000000000000000000000000000600052602160045260246000fd5b021790555060005b600354811015610ad2578260046000838152602001908152602001600020600401541415610abf57610abe816115ea565b5b8080610aca90611d84565b915050610a8d565b505050565b80600260006101000a81548173ffffffffffffffffffffffffffffffffffffffff021916908373ffffffffffffffffffffffffffffffffffffffff16021790555050565b610b236115e2565b73ffffffffffffffffffffffffffffffffffffffff16610b4161124c565b73ffffffffffffffffffffffffffffffffffffffff1614610b97576040517f08c379a0000000000000000000000000000000000000000000000000000000008152600401610b8e90611c1c565b60405180910390fd5b6004600082815260200190815260200160002060050160009054906101000a900460ff1615610bfb576040517f08c379a0000000000000000000000000000000000000000000000000000000008152600401610bf290611bbc565b60405180910390fd5b610c04816115ea565b6000600460008381526020019081526020016000206003018190555050565b6000610c2d6115e2565b73ffffffffffffffffffffffffffffffffffffffff16610c4b61124c565b73ffffffffffffffffffffffffffffffffffffffff1614610ca1576040517f08c379a0000000000000000000000000000000000000000000000000000000008152600401610c9890611c1c565b60405180910390fd5b60003390506000600360008154610cb790611d84565b91905081905590506000600460008381526020019081526020016000209050818160000181905550828160010160006101000a81548173ffffffffffffffffffffffffffffffffffffffff021916908373ffffffffffffffffffffffffffffffffffffffff160217905550858160020160006101000a81548173ffffffffffffffffffffffffffffffffffffffff021916908373ffffffffffffffffffffffffffffffffffffffff16021790555084816003018190555086816004018190555060008160050160006101000a81548160ff021916908315150217905550600560008473ffffffffffffffffffffffffffffffffffffffff1673ffffffffffffffffffffffffffffffffffffffff168152602001908152602001600020829080600181540180825580915050600190039060005260206000200160009091909190915055600260009054906101000a900473ffffffffffffffffffffffffffffffffffffffff1673ffffffffffffffffffffffffffffffffffffffff1663fd2b520283896040518363ffffffff1660e01b8152600401610e57929190611cb7565b600060405180830381600087803b158015610e7157600080fd5b505af1158015610e85573d6000803e3d6000fd5b505050508573ffffffffffffffffffffffffffffffffffffffff166323b872dd8430886040518463ffffffff1660e01b8152600401610ec693929190611ada565b602060405180830381600087803b158015610ee057600080fd5b505af1158015610ef4573d6000803e3d6000fd5b505050506040513d601f19601f82011682018060405250810190610f1891906117f4565b610f57576040517f08c379a0000000000000000000000000000000000000000000000000000000008152600401610f4e90611b5c565b60405180910390fd5b8193505050509392505050565b610f6c6115e2565b73ffffffffffffffffffffffffffffffffffffffff16610f8a61124c565b73ffffffffffffffffffffffffffffffffffffffff1614610fe0576040517f08c379a0000000000000000000000000000000000000000000000000000000008152600401610fd790611c1c565b60405180910390fd5b600073ffffffffffffffffffffffffffffffffffffffff1660008054906101000a900473ffffffffffffffffffffffffffffffffffffffff1673ffffffffffffffffffffffffffffffffffffffff167f8be0079c531659141344cd1fd0a4f28419497f9722a3daafe3b4186f6b6457e060405160405180910390a360008060006101000a81548173ffffffffffffffffffffffffffffffffffffffff021916908373ffffffffffffffffffffffffffffffffffffffff160217905550565b6110a66115e2565b73ffffffffffffffffffffffffffffffffffffffff166110c461124c565b73ffffffffffffffffffffffffffffffffffffffff161461111a576040517f08c379a000000000000000000000000000000000000000000000000000000000815260040161111190611c1c565b60405180910390fd5b60006006600083815260200190815260200160002090506002600481111561116b577f4e487b7100000000000000000000000000000000000000000000000000000000600052602160045260246000fd5b8160000160149054906101000a900460ff1660048111156111b5577f4e487b7100000000000000000000000000000000000000000000000000000000600052602160045260246000fd5b146111f5576040517f08c379a00000000000000000000000000000000000000000000000000000000081526004016111ec90611bfc565b60405180910390fd5b60038160000160146101000a81548160ff02191690836004811115611243577f4e487b7100000000000000000000000000000000000000000000000000000000600052602160045260246000fd5b02179055505050565b60008060009054906101000a900473ffffffffffffffffffffffffffffffffffffffff16905090565b60005b6003548110156112e35781600460008381526020019081526020016000206004015414156112d05760006004600083815260200190815260200160002060050160006101000a81548160ff0219169083151502179055505b80806112db90611d84565b915050611278565b5050565b6004600082815260200190815260200160002060050160009054906101000a900460ff161561134b576040517f08c379a000000000000000000000000000000000000000000000000000000000815260040161134290611c3c565b60405180910390fd5b60016004600083815260200190815260200160002060050160006101000a81548160ff02191690831515021790555050565b6113856115e2565b73ffffffffffffffffffffffffffffffffffffffff166113a361124c565b73ffffffffffffffffffffffffffffffffffffffff16146113f9576040517f08c379a00000000000000000000000000000000000000000000000000000000081526004016113f090611c1c565b60405180910390fd5b600073ffffffffffffffffffffffffffffffffffffffff168173ffffffffffffffffffffffffffffffffffffffff161415611469576040517f08c379a000000000000000000000000000000000000000000000000000000000815260040161146090611b7c565b60405180910390fd5b8073ffffffffffffffffffffffffffffffffffffffff1660008054906101000a900473ffffffffffffffffffffffffffffffffffffffff1673ffffffffffffffffffffffffffffffffffffffff167f8be0079c531659141344cd1fd0a4f28419497f9722a3daafe3b4186f6b6457e060405160405180910390a3806000806101000a81548173ffffffffffffffffffffffffffffffffffffffff021916908373ffffffffffffffffffffffffffffffffffffffff16021790555050565b6000600660008581526020019081526020016000209050828160000160006101000a81548173ffffffffffffffffffffffffffffffffffffffff021916908373ffffffffffffffffffffffffffffffffffffffff16021790555060008160000160146101000a81548160ff021916908360048111156115ce577f4e487b7100000000000000000000000000000000000000000000000000000000600052602160045260246000fd5b021790555081816001018190555050505050565b600033905090565b6004600082815260200190815260200160002060020160009054906101000a900473ffffffffffffffffffffffffffffffffffffffff1673ffffffffffffffffffffffffffffffffffffffff1663a9059cbb6004600084815260200190815260200160002060010160009054906101000a900473ffffffffffffffffffffffffffffffffffffffff1660046000858152602001908152602001600020600301546040518363ffffffff1660e01b81526004016116a7929190611b11565b602060405180830381600087803b1580156116c157600080fd5b505af11580156116d5573d6000803e3d6000fd5b505050506040513d601f19601f820116820180604052508101906116f991906117f4565b611738576040517f08c379a000000000000000000000000000000000000000000000000000000000815260040161172f90611b9c565b60405180910390fd5b50565b60008135905061174a8161207a565b92915050565b60008151905061175f81612091565b92915050565b600081359050611774816120a8565b92915050565b600081359050611789816120bf565b92915050565b6000602082840312156117a157600080fd5b60006117af8482850161173b565b91505092915050565b600080604083850312156117cb57600080fd5b60006117d98582860161173b565b92505060206117ea8582860161177a565b9150509250929050565b60006020828403121561180657600080fd5b600061181484828501611750565b91505092915050565b60006020828403121561182f57600080fd5b600061183d84828501611765565b91505092915050565b60006020828403121561185857600080fd5b60006118668482850161177a565b91505092915050565b60008060006060848603121561188457600080fd5b60006118928682870161177a565b93505060206118a38682870161173b565b92505060406118b48682870161177a565b9150509250925092565b60006118ca8383611aa1565b60208301905092915050565b6118df81611d2a565b82525050565b60006118f082611cf0565b6118fa8185611d08565b935061190583611ce0565b8060005b8381101561193657815161191d88826118be565b975061192883611cfb565b925050600181019050611909565b5085935050505092915050565b6000611950601983611d19565b915061195b82611dfc565b602082019050919050565b6000611973602683611d19565b915061197e82611e25565b604082019050919050565b6000611996602783611d19565b91506119a182611e74565b604082019050919050565b60006119b9601d83611d19565b91506119c482611ec3565b602082019050919050565b60006119dc602283611d19565b91506119e782611eec565b604082019050919050565b60006119ff602483611d19565b9150611a0a82611f3b565b604082019050919050565b6000611a22602083611d19565b9150611a2d82611f8a565b602082019050919050565b6000611a45601a83611d19565b9150611a5082611fb3565b602082019050919050565b6000611a68602783611d19565b9150611a7382611fdc565b604082019050919050565b6000611a8b603a83611d19565b9150611a968261202b565b604082019050919050565b611aaa81611d7a565b82525050565b611ab981611d7a565b82525050565b6000602082019050611ad460008301846118d6565b92915050565b6000606082019050611aef60008301866118d6565b611afc60208301856118d6565b611b096040830184611ab0565b949350505050565b6000604082019050611b2660008301856118d6565b611b336020830184611ab0565b9392505050565b60006020820190508181036000830152611b5481846118e5565b905092915050565b60006020820190508181036000830152611b7581611943565b9050919050565b60006020820190508181036000830152611b9581611966565b9050919050565b60006020820190508181036000830152611bb581611989565b9050919050565b60006020820190508181036000830152611bd5816119ac565b9050919050565b60006020820190508181036000830152611bf5816119cf565b9050919050565b60006020820190508181036000830152611c15816119f2565b9050919050565b60006020820190508181036000830152611c3581611a15565b9050919050565b60006020820190508181036000830152611c5581611a38565b9050919050565b60006020820190508181036000830152611c7581611a5b565b9050919050565b60006020820190508181036000830152611c9581611a7e565b9050919050565b6000602082019050611cb16000830184611ab0565b92915050565b6000604082019050611ccc6000830185611ab0565b611cd96020830184611ab0565b9392505050565b6000819050602082019050919050565b600081519050919050565b6000602082019050919050565b600082825260208201905092915050565b600082825260208201905092915050565b6000611d3582611d5a565b9050919050565b60008115159050919050565b6000611d5382611d2a565b9050919050565b600073ffffffffffffffffffffffffffffffffffffffff82169050919050565b6000819050919050565b6000611d8f82611d7a565b91507fffffffffffffffffffffffffffffffffffffffffffffffffffffffffffffffff821415611dc257611dc1611dcd565b5b600182019050919050565b7f4e487b7100000000000000000000000000000000000000000000000000000000600052601160045260246000fd5b7f4661696c656420746f207472616e7366657220746f6b656e7300000000000000600082015250565b7f4f776e61626c653a206e6577206f776e657220697320746865207a65726f206160008201527f6464726573730000000000000000000000000000000000000000000000000000602082015250565b7f4661696c656420746f2072657475726e20746f6b656e7320746f20746865206960008201527f6e766573746f7200000000000000000000000000000000000000000000000000602082015250565b7f63616e6e6f7420756e7374616b6520636f6d6d69746564207374616b65000000600082015250565b7f436c61696d2073686f756c642062652063616c6c65642062792073706f6e736f60008201527f722e000000000000000000000000000000000000000000000000000000000000602082015250565b7f4c61756e6368506f6f6c206973206e6f742064656c69766572696e672073746160008201527f7475732e00000000000000000000000000000000000000000000000000000000602082015250565b7f4f776e61626c653a2063616c6c6572206973206e6f7420746865206f776e6572600082015250565b7f5374616b6520697320616c726561647920636f6d6d6974746564000000000000600082015250565b7f436c6f7365506f6f6c206973206e6f7420616c6c6f77656420666f722074686960008201527f7320636173652e00000000000000000000000000000000000000000000000000602082015250565b7f436c61696d2073686f756c642062652063616c6c6564207768656e207468652060008201527f706f6f6c20697320696e20636c61696d696e672073746174652e000000000000602082015250565b61208381611d2a565b811461208e57600080fd5b50565b61209a81611d3c565b81146120a557600080fd5b50565b6120b181611d48565b81146120bc57600080fd5b50565b6120c881611d7a565b81146120d357600080fd5b5056fea2646970667358221220720c3c483252c9321ad95667ca92b001a48a210d7ce4cb89bf429ee003467c0264736f6c63430008040033",
  "linkReferences": {},
  "deployedLinkReferences": {}
}